:100000000C9434000C9451000C9451000C94510049
:100010000C9451000C9451000C9451000C9451001C
:100020000C9451000C9451000C9451000C9451000C
:100030000C9451000C9451000C9451000C945100FC
:100040000C9429020C9451000C9451000C94510012
:100050000C9451000C9451000C9451000C945100DC
:100060000C9451000C94510011241FBECFEFD8E026
:10007000DEBFCDBF11E0A0E0B1E0E6E6F9E002C0EE
:1000800005900D92AE30B107D9F721E0AEE0B1E0B6
:1000900001C01D92AB39B207E1F70E9473020C94C4
:1000A000B1040C9400003FB7F89480911401909132
:1000B0001501A0911601B091170126B5A89B05C0A6
:1000C0002F3F19F00196A11DB11D3FBFBA2FA92FD7
:1000D000982F8827BC01CD01620F711D811D911DD4
:1000E00042E0660F771F881F991F4A95D1F7089540
:1000F0008F929F92AF92BF92CF92DF92EF92FF9238
:100100004B015C010E9453006B017C010E94530073
:100110006C197D098E099F09683E73408105910520
:10012000A8F321E0821A9108A108B10888EEC80E50
:1001300083E0D81EE11CF11C81149104A104B104D8
:1001400029F7FF90EF90DF90CF90BF90AF909F90F6
:100150008F900895CF93DF9300D0CDB7DEB78A8319
:1001600086B1898389812A81082E000C990B02C0EF
:10017000959587952A95E2F78170898389810F90FB
:100180000F90DF91CF910895CF93DF9300D0CDB73B
:10019000DEB789836A8389818130B1F489813A81AC
:1001A00020910E01082E000C990B01C0880F3A9582
:1001B000EAF7822B80930E0180910E0185B90F9092
:1001C0000F90DF91CF9108953A8120910E0181E047
:1001D00090E001C0880F3A95EAF780958223EACF34
:1001E00067E080E00E94C40066E080E00E94C400F6
:1001F00065E080E00E94C40061E070E080E090E093
:100200000E94780065E081E00E94C40061E070E037
:1002100080E090E00E94780065E080E00E94C400E9
:1002200061E070E080E090E00C947800CF93DF9381
:100230001F92CDB7DEB7898389818BB967E081E0F2
:100240000E94C40066E080E00E94C40065E080E097
:100250000E94C40061E070E080E090E00E947800BD
:1002600065E081E00E94C40061E070E080E090E021
:100270000E94780065E080E00E94C40061E070E0C8
:1002800080E090E00F90DF91CF910C947800EF9296
:10029000FF920F931F93CF93DF93CDB7DEB7C55671
:1002A000D1090FB6F894DEBF0FBECDBFEBE7F1E08A
:1002B000CE0101967C01DC0180813296805D8D93B8
:1002C00091E0EB39F907C1F7F70110E000E0819107
:1002D000803329F40F5F1F4F00311105C1F780EC07
:1002E0008BB90E94F0000031110581F480E3CB59F5
:1002F000DF4F0FB6F894DEBF0FBECDBFDF91CF91B9
:100300001F910F91FF90EF900C9416010E0D1F1D81
:10031000F80181918F010E941601C8018E199F0971
:100320004097B4F3CB59DF4F0FB6F894DEBF0FBE42
:10033000CDBFDF91CF911F910F91FF90EF90089566
:100340001F93CF93DF9300D000D01F92CDB7DEB7BD
:100350001982898184300CF07AC08981813009F456
:100360005DC0C4F5882309F448C081E00E94AA005A
:10037000182F82E00E94AA00182B83E00E94AA0096
:10038000182B84E00E94AA00812B8C838C81882307
:1003900009F459C089818B8381E08A838A81853001
:1003A0000CF051C08A810E94AA00813009F048C037
:1003B0008A818C838B819C81880F880F890F8D8324
:1003C0008D810F900F900F900F900F90DF91CF9134
:1003D0001F910895823049F1833039F660E080E062
:1003E0000E94C40061E080E00E94C40062E080E0FE
:1003F0000E94C40063E081E00EC060E081E00E94E2
:10040000C40061E080E00E94C40062E080E00E94DD
:10041000C40063E080E00E94C400A7CF60E080E0F9
:100420000E94C40061E081E0EECF60E080E00E94C5
:10043000C40061E080E00E94C40062E081E0E7CF98
:100440008A818F5FAACF89818F5F898382CF80E085
:10045000B8CF1F920F920FB60F9211242F933F9394
:100460008F939F93AF93BF9380911001909111014F
:10047000A0911201B091130130910F0123E0230FDD
:100480002D3758F50196A11DB11D20930F018093C2
:10049000100190931101A0931201B0931301809168
:1004A000140190911501A0911601B09117010196C8
:1004B000A11DB11D8093140190931501A093160105
:1004C000B0931701BF91AF919F918F913F912F9161
:1004D0000F900FBE0F901F90189526E8230F0296DD
:1004E000A11DB11DD2CFCF93DF9300D000D01F92BA
:1004F000CDB7DEB7789484B5826084BD84B5816061
:1005000084BD85B5826085BD85B5816085BD8091DE
:100510006E00816080936E00109281008091810056
:10052000826080938100809181008160809381004E
:10053000809180008160809380008091B100846010
:100540008093B1008091B00081608093B000809171
:100550007A00846080937A0080917A008260809330
:100560007A0080917A00816080937A0080917A008D
:10057000806880937A001092C1008FEF8AB984B9A5
:1005800017B880E00E94AA008D8398E3F92E06E058
:100590001FE08D81811113C00E94AA008D838D817F
:1005A0008130B9F78BB90E94F000FBB80E94F000CF
:1005B0000BB90E94F0001BB90E94F000EACF00E0E6
:1005C00011E0D8018C91882331F0F80181918F01DD
:1005D0000E941601F6CF87E380936C0188E3809335
:1005E0006D0189E380936E018FE280936F0184E354
:1005F0008093700185E38093710186E3809372019B
:100600008AE28093730181E38093740182E3809393
:10061000750183E3809376018DE2809377018FE605
:100620008093780180E3809379018DE380937A0150
:100630008BE280937B0180917B010E9416011B82DB
:10064000BB24BA94F0E86F2EA6E07A2E10E000E00A
:10065000AA24A394B9E7CB2EB1E0DB2E8AE0E82EE2
:10066000F12C0E94A0018C838C8181110AC00E9410
:10067000A0018C838C818823B9F38C8180936A01DB
:10068000F3CF80916A018D3059F4ABB80E94F0002D
:100690006FE070E080E090E00E9478001C82E1CF83
:1006A00080916A018F3009F024C11AB8B4B817B824
:1006B0006BB80E94F0007BB80E94F000912C812C56
:1006C00080916901082E000C990B881699069CF5FB
:1006D00067E081E00E94C40066E081E00E94C400FF
:1006E00065E080E00E94C40061E070E080E090E09E
:1006F0000E94780065E081E00E94C40061E070E043
:1007000080E090E00E94780089B1898389818A83A2
:1007100065E080E00E94C40061E070E080E090E06D
:100720000E9478008A81F401E75AFE4F8083FFEF30
:100730008F1A9F0AC5CFBAB8B4B817B880E0482F4F
:10074000082E000C550BFA01E75AFE4F90819923B1
:1007500011F08F5FF4CF30E020E024173507ACF4C0
:10076000F901E75AFE4F80818B3261F080818D3232
:1007700049F080818A3231F080818F3219F02F5F09
:100780003F4FEBCF808180935801421B530BD80120
:10079000A21BB30BAA0FBB1F90E080E08217930748
:1007A000A1F0FC01E75AFE4F6081FC01EE0FFF1F34
:1007B000EA0FFB1FE85CFE4F062E000C770B605320
:1007C000710971A360A30196E9CF01969A012250A5
:1007D0003109F801E41BF50BEE0FFF1FE65CFE4F3D
:1007E00037FD0FC0DC01A75ABE4F4C91042E000C00
:1007F000550B4053510941935193019621503109B2
:10080000EFCF809158018B32D1F08D3209F447C07F
:1008100080916A018D3009F441CF0E94A00180933C
:100820006A0180916A018D3099F7ABB80E94F0009F
:100830006FE070E080E090E00E947800E9CFE8E3AC
:10084000F1E028E131E06BE771E081919191D9010C
:100850004D915D919D01840F951FDB018D939D93BB
:10086000BD01B1E0E835FB0781F7E9E9F1E08081FE
:100870009181B7010E94890492918291680F791F3A
:100880007183608382819381B7010E94890493837D
:100890008283CE16DF0659F70E944701B9CFE8E3FD
:1008A000F1E028E331E08BE7882E81E0982E868DF9
:1008B000978DD9015E914E919D01841795074CF457
:1008C0000A96978F868F648D758D61507109758F2B
:1008D000648F841B950BD4015F969C938E935E97D7
:1008E0003297B2E08B1A910881E028313807F9F687
:1008F000D3CFE0916A010E2E000CFF0BE559FE4F9D
:1009000080810E941601809169018F5F8093690147
:10091000BFCE97FB072E16F4009407D077FD09D0C1
:100920000E949D0407FC05D03EF4909581959F4F51
:100930000895709561957F4F0895AA1BBB1B51E1E7
:1009400007C0AA1FBB1FA617B70710F0A61BB70B3F
:10095000881F991F5A95A9F780959095BC01CD01E4
:060960000895F894FFCF9A
:0E09660043616C6327732068696565000000BB
:00000001FF
